:03000000020E20CD
:0C0E2000787FE4F6D8FD758157020E675C
:100BF7002A2A2A2A2A2A2A2A2A2A2A2A2A2A2A2A4E
:100C07002A2A2A2A2A2A2A2A0D0A002A2A2A2A2AA4
:100C170041544D202053696D756C61746F722A2A97
:100C27002A2A2A0D0A005072657373206420746F94
:100C3700206B6E6F772041544D2053746174650D9E
:100C47000A00456E74657220612076616C696420C4
:100C5700616D6F756E7420746F2062652074616BAF
:100C6700656E0D0A00202020202020202020202033
:100C7700202020202000323030303A00203530301C
:100C87003A003230303A0020203130303A00496E95
:100C970076616C69642020496E70757400436F6CCF
:100CA7006C656374204361736800547279204167EF
:100CB70061696E0007D001F400C80064323030303B
:100CC7002C003530302C00003230302C0000313011
:040CD70030000000E9
:100EAC00C102C10108310014001E000A000A0C46E0
:100EBC00323000333000313000313000082900006E
:100ECC000000000000000652000000000000064078
:100EDC0000000000000002270000023B000002237B
:080EEC00000002210000C1001A
:100F3B00E4F5A0C282C280C2817F38FE1210431238
:100F4B000FCD7F067E00121043120FCD7F0C7E005B
:100F5B00121043120FCD7F017E00121043120FCDE2
:070F6B007F807E00021043AD
:040FCD007F047E001F
:100FD100E4FDFCC3ED9FEC9E5015E4FBFA0BBB0056
:0F0FE100010ABA01F8BB7EF50DBD00010C80E4DA
:010FF00022DE
:060D89008B088A09890AAB
:100D8F00E4F50EF50FE50F25E0FFE50E33AB08AAEE
:100D9F0009A90A8F82F583120BAEFFAEF07C007D9E
:100DAF000A120B23EF2430FFAB0BAA0CA90D850FF2
:100DBF0082850E837403120BE6EF120AEFE50F25FF
:100DCF00E0FFE50E33AB08AA09A90A8F82F583125B
:100DDF000BAEFFAEF07C007D0A120B23ED2430FF2B
:100DEF00C007AE0EAF0F7C007D03120B11AB0BE5EE
:100DFF000D2FF9E50C3EFA900001D0E0120AEF0535
:100E0F000FE50F7002050E6404450E6003020D948A
:010E1F0022B0
:10104300C280C281D2828FA07F0A7E00120FD1C2DA
:021053008222F7
:10105500D280C281D2828FA07F0A7E00120FD1C2B8
:021065008222E5
:0B0F72007F801210437BFF7A0C796C2B
:100F7D008B088A09890AAB08AA09A90A120AD66040
:100F8D0013050AE50A7002050914F9120AD6FF12B3
:050F9D00105580E22266
:10106700758920758DCC759850D28ED2ACD2AF22AF
:0810B0008F993002FDC20222FB
:060FA2007BFF7A0B79F7DA
:100FA8008B088A09890AAB08AA09A90A120AD66015
:100FB80013050AE50A7002050914F9120AD6FF1288
:050FC80010B080E222E0
:0910A600E4FF3001FDC201AF9925
:0110AF00221E
:0300230002107751
:10107700309905C299D20232309804C298D201320F
:10096E00120F3B121067120FA27BFF7A0C79121234
:10097E000FA8120FA27BFF7A0C792D120FA87BFF06
:10098E007A0C7949120FA81210A68F3FE54060032A
:10099E00020A66E53F64646003020A28FE120F72C3
:1009AE00750B00750C00750D467B007A00793112BF
:1009BE000D897F817E001210437BFF7A0C797D12A8
:1009CE000F7D7B007A007946120F7D7BFF7A0C79C2
:1009DE0083120F7D7B007A007949120F7D7FC17ED5
:1009EE00001210437BFF7A0C7989120F7D7B007AFF
:1009FE0000794C120F7D7BFF7A0C798E120F7D7B66
:100A0E00007A00794F120F7D7FB87E0B120FD17EC8
:100A1E0000120F72121087020AC9E4F527F528AFEB
:100A2E003FFED3EF943074809480402AEF943A7452
:100A3E00809480502174402528F8A63F0528E5288B
:100A4E00700205277FC0121043AF3F121055753D3F
:100A5E0000753EC080658060E53F640D7022744075
:100A6E002528F8E4F67FC0FE1210437B007A007949
:100A7E0040120F7D7FD07E07120FD1120800803BEF
:100A8E00E53FC394304031E53FD39439502A74404A
:100A9E002528F8A63F053EE53E7002053D0528E5F2
:100AAE002870020527AF3EAE3D121043743F252835
:100ABE00F8E6FF1210558003120FF1120EF57F6447
:080ACE007E00120FD102099510
:100EF5007F807E00121043E4F525F526E52625E0E2
:100F05002431F8E6FE08E64E6018AE25AF267C00D3
:100F15007D06120B1174C32FF9740C3EFA7BFF1278
:100F25000F7D0526E52670020525C39404E5256495
:060F350080948040C722F9
:101087007FC07E001210437BFF7A0C796C020F7DC4
:100FF1007FC07E00120F747FC17E001210437BFF01
:101001007A0C7995120F7D7FD07E07120FD10210D5
:011011008757
:10101200E4F521F52274402522F8E4F60522E522C2
:0E102200700205216405452170EBE4F54522BE
:100800007B007A007940120CDB8E3B8F3C12101279
:10081000AE3BAF3C7C007D64120B78ED4C60030274
:10082000096AF525F526E52625E02431F8E6FE08D7
:10083000E64E70030208C8E52625E0FFE52533FEF5
:1008400074BB2FF582740C3EF583E493FC74019322
:10085000FDAE3BAF3C120B78AD26ED25E02429F828
:10086000A60608A607ED25E02429F8E6FE08E6FF1F
:10087000ED25E02431F8E6FC08E6FDC39FEC9EC3BD
:1008800064809480500ED200E52625E02429F8A645
:100890000408A605E52625E0FFE52533FE74BB2FF9
:1008A000F582740C3EF583E493FC740193FDE52618
:1008B00025E02429F8E6FE08E6FF120B11C3E53C0B
:1008C0009FF53CE53B9EF53B0526E5267002052598
:1008D000640445256003020826E53C453B70507FD3
:1008E000C2FE1210437BFF7A0C79A4120F7DE4F54F
:1008F00025F526AF26EF25E02431F8C000E6FC08F8
:10090000E6FDEF25E02429F8E6FE08E6FFC3ED9FAB
:10091000FFEC9ED000F608A6070526E52670020526
:10092000256404452570CC30001F120EF5801A7F17
:10093000C37E001210437BFF7A0C79B1120F7D7FCA
:10094000D07E07120FD1121087E4F525F526E52693
:1009500025E02429F8E4F608F60526E526700205C8
:0E096000256404452570E7C20022120FF12223
:100E2C0002096EE493A3F8E493A34003F68001F265
:100E3C0008DFF48029E493A3F85407240CC8C333C7
:100E4C00C4540F4420C8834004F456800146F6DF96
:100E5C00E4800B0102040810204080900EACE47E6C
:100E6C00019360BCA3FF543F30E509541FFEE4938B
:100E7C00A360010ECF54C025E060A840B8E493A352
:100E8C00FAE493A3F8E493A3C8C582C8CAC583CA7D
:100E9C00F0A3C8C582C8CAC583CADFE9DEE780BE35
:010EF40000FD
:100AD600BB010689828A83E0225002E722BBFE021E
:090AE600E32289828A83E4932251
:100AEF00F8BB010DE58229F582E5833AF583E8F03D
:100AFF00225006E92582C8F622BBFE05E92582C8E9
:020B0F00F222D0
:100B1100EF8DF0A4A8F0CF8CF0A428CE8DF0A42EF8
:020B2100FE22B2
:100B2300BC000BBE0029EF8DF084FFADF022E4CCB6
:100B3300F875F008EF2FFFEE33FEEC33FCEE9DEC7F
:100B4300984005FCEE9DFE0FD5F0E9E4CEFD22EDC5
:100B5300F8F5F0EE8420D21CFEADF075F008EF2F0F
:100B6300FFED33FD4007985006D5F0F222C398FD00
:050B73000FD5F0EA229D
:100B7800C2D5EC30E709B2D5E4C39DFDE49CFCEE98
:100B880030E715B2D5E4C39FFFE49EFE120B23C3E2
:100B9800E49DFDE49CFC8003120B2330D507C3E4DD
:060BA8009FFFE49EFE2207
:100BAE00BB0110E58229F582E5833AF583E0F5F085
:100BBE00A3E0225009E92582F886F008E622BBFE62
:100BCE000AE92582F8E2F5F008E222E5832AF583A8
:080BDE00E993F5F0A3E993226D
:100BE600F5F0C582A4C582C5F0C583A42583F58327
:010BF60022DC
:100CDB008B088A09890AAB08AA09A90A120AD6FF46
:100CEB00121030500D7401250AF50AE43509F50987
:100CFB0080E4D203AB08AA09A90A120AD6FF642B17
:100D0B006004EFB42D1BAB08050AE50AAA097002B3
:100D1B00050914F9120AD6642D6003D38001C3921E
:100D2B0003E4F50BF50CAB08AA09A90A120AD6FFC6
:100D3B001210975036AB08AA09A90A120AD6FF332C
:100D4B0095E0FEEF24D0FBEE34FFFAAE0BAF0C7C3C
:100D5B00007D0A120B11EF2BF50CEE3AF50B74011B
:100D6B00250AF50AE43509F50980BB300306AE0BFD
:0E0D7B00AF0C8009C3E4950CFFE4950BFE223B
:0F109700EFC394304007EF943A50028001C32218
:10103000EFC394094005EF940E4003BF2003D38013
:0310400001C322C7
:00000001FF
